{
  "contractName": "NftMarket",
  "abi": [
    {
      "inputs": [],
      "stateMutability": "nonpayable",
      "type": "constructor"
    },
    {
      "anonymous": false,
      "inputs": [
        {
          "indexed": true,
          "internalType": "address",
          "name": "owner",
          "type": "address"
        },
        {
          "indexed": true,
          "internalType": "address",
          "name": "approved",
          "type": "address"
        },
        {
          "indexed": true,
          "internalType": "uint256",
          "name": "tokenId",
          "type": "uint256"
        }
      ],
      "name": "Approval",
      "type": "event"
    },
    {
      "anonymous": false,
      "inputs": [
        {
          "indexed": true,
          "internalType": "address",
          "name": "owner",
          "type": "address"
        },
        {
          "indexed": true,
          "internalType": "address",
          "name": "operator",
          "type": "address"
        },
        {
          "indexed": false,
          "internalType": "bool",
          "name": "approved",
          "type": "bool"
        }
      ],
      "name": "ApprovalForAll",
      "type": "event"
    },
    {
      "anonymous": false,
      "inputs": [
        {
          "indexed": false,
          "internalType": "uint256",
          "name": "_fromTokenId",
          "type": "uint256"
        },
        {
          "indexed": false,
          "internalType": "uint256",
          "name": "_toTokenId",
          "type": "uint256"
        }
      ],
      "name": "BatchMetadataUpdate",
      "type": "event"
    },
    {
      "anonymous": false,
      "inputs": [
        {
          "indexed": false,
          "internalType": "uint256",
          "name": "_tokenId",
          "type": "uint256"
        }
      ],
      "name": "MetadataUpdate",
      "type": "event"
    },
    {
      "anonymous": false,
      "inputs": [
        {
          "indexed": false,
          "internalType": "uint256",
          "name": "tokenId",
          "type": "uint256"
        },
        {
          "indexed": false,
          "internalType": "uint256",
          "name": "price",
          "type": "uint256"
        },
        {
          "indexed": false,
          "internalType": "address",
          "name": "creator",
          "type": "address"
        },
        {
          "indexed": false,
          "internalType": "bool",
          "name": "isListed",
          "type": "bool"
        }
      ],
      "name": "NftItemCreated",
      "type": "event"
    },
    {
      "anonymous": false,
      "inputs": [
        {
          "indexed": true,
          "internalType": "address",
          "name": "previousOwner",
          "type": "address"
        },
        {
          "indexed": true,
          "internalType": "address",
          "name": "newOwner",
          "type": "address"
        }
      ],
      "name": "OwnershipTransferred",
      "type": "event"
    },
    {
      "anonymous": false,
      "inputs": [
        {
          "indexed": true,
          "internalType": "address",
          "name": "from",
          "type": "address"
        },
        {
          "indexed": true,
          "internalType": "address",
          "name": "to",
          "type": "address"
        },
        {
          "indexed": true,
          "internalType": "uint256",
          "name": "tokenId",
          "type": "uint256"
        }
      ],
      "name": "Transfer",
      "type": "event"
    },
    {
      "inputs": [
        {
          "internalType": "address",
          "name": "to",
          "type": "address"
        },
        {
          "internalType": "uint256",
          "name": "tokenId",
          "type": "uint256"
        }
      ],
      "name": "approve",
      "outputs": [],
      "stateMutability": "nonpayable",
      "type": "function"
    },
    {
      "inputs": [
        {
          "internalType": "address",
          "name": "owner",
          "type": "address"
        }
      ],
      "name": "balanceOf",
      "outputs": [
        {
          "internalType": "uint256",
          "name": "",
          "type": "uint256"
        }
      ],
      "stateMutability": "view",
      "type": "function",
      "constant": true
    },
    {
      "inputs": [
        {
          "internalType": "uint256",
          "name": "tokenId",
          "type": "uint256"
        }
      ],
      "name": "getApproved",
      "outputs": [
        {
          "internalType": "address",
          "name": "",
          "type": "address"
        }
      ],
      "stateMutability": "view",
      "type": "function",
      "constant": true
    },
    {
      "inputs": [
        {
          "internalType": "address",
          "name": "owner",
          "type": "address"
        },
        {
          "internalType": "address",
          "name": "operator",
          "type": "address"
        }
      ],
      "name": "isApprovedForAll",
      "outputs": [
        {
          "internalType": "bool",
          "name": "",
          "type": "bool"
        }
      ],
      "stateMutability": "view",
      "type": "function",
      "constant": true
    },
    {
      "inputs": [],
      "name": "listingPrice",
      "outputs": [
        {
          "internalType": "uint256",
          "name": "",
          "type": "uint256"
        }
      ],
      "stateMutability": "view",
      "type": "function",
      "constant": true
    },
    {
      "inputs": [],
      "name": "name",
      "outputs": [
        {
          "internalType": "string",
          "name": "",
          "type": "string"
        }
      ],
      "stateMutability": "view",
      "type": "function",
      "constant": true
    },
    {
      "inputs": [],
      "name": "owner",
      "outputs": [
        {
          "internalType": "address",
          "name": "",
          "type": "address"
        }
      ],
      "stateMutability": "view",
      "type": "function",
      "constant": true
    },
    {
      "inputs": [
        {
          "internalType": "uint256",
          "name": "tokenId",
          "type": "uint256"
        }
      ],
      "name": "ownerOf",
      "outputs": [
        {
          "internalType": "address",
          "name": "",
          "type": "address"
        }
      ],
      "stateMutability": "view",
      "type": "function",
      "constant": true
    },
    {
      "inputs": [],
      "name": "renounceOwnership",
      "outputs": [],
      "stateMutability": "nonpayable",
      "type": "function"
    },
    {
      "inputs": [
        {
          "internalType": "address",
          "name": "from",
          "type": "address"
        },
        {
          "internalType": "address",
          "name": "to",
          "type": "address"
        },
        {
          "internalType": "uint256",
          "name": "tokenId",
          "type": "uint256"
        }
      ],
      "name": "safeTransferFrom",
      "outputs": [],
      "stateMutability": "nonpayable",
      "type": "function"
    },
    {
      "inputs": [
        {
          "internalType": "address",
          "name": "from",
          "type": "address"
        },
        {
          "internalType": "address",
          "name": "to",
          "type": "address"
        },
        {
          "internalType": "uint256",
          "name": "tokenId",
          "type": "uint256"
        },
        {
          "internalType": "bytes",
          "name": "data",
          "type": "bytes"
        }
      ],
      "name": "safeTransferFrom",
      "outputs": [],
      "stateMutability": "nonpayable",
      "type": "function"
    },
    {
      "inputs": [
        {
          "internalType": "address",
          "name": "operator",
          "type": "address"
        },
        {
          "internalType": "bool",
          "name": "approved",
          "type": "bool"
        }
      ],
      "name": "setApprovalForAll",
      "outputs": [],
      "stateMutability": "nonpayable",
      "type": "function"
    },
    {
      "inputs": [
        {
          "internalType": "bytes4",
          "name": "interfaceId",
          "type": "bytes4"
        }
      ],
      "name": "supportsInterface",
      "outputs": [
        {
          "internalType": "bool",
          "name": "",
          "type": "bool"
        }
      ],
      "stateMutability": "view",
      "type": "function",
      "constant": true
    },
    {
      "inputs": [],
      "name": "symbol",
      "outputs": [
        {
          "internalType": "string",
          "name": "",
          "type": "string"
        }
      ],
      "stateMutability": "view",
      "type": "function",
      "constant": true
    },
    {
      "inputs": [
        {
          "internalType": "uint256",
          "name": "tokenId",
          "type": "uint256"
        }
      ],
      "name": "tokenURI",
      "outputs": [
        {
          "internalType": "string",
          "name": "",
          "type": "string"
        }
      ],
      "stateMutability": "view",
      "type": "function",
      "constant": true
    },
    {
      "inputs": [
        {
          "internalType": "address",
          "name": "from",
          "type": "address"
        },
        {
          "internalType": "address",
          "name": "to",
          "type": "address"
        },
        {
          "internalType": "uint256",
          "name": "tokenId",
          "type": "uint256"
        }
      ],
      "name": "transferFrom",
      "outputs": [],
      "stateMutability": "nonpayable",
      "type": "function"
    },
    {
      "inputs": [
        {
          "internalType": "address",
          "name": "newOwner",
          "type": "address"
        }
      ],
      "name": "transferOwnership",
      "outputs": [],
      "stateMutability": "nonpayable",
      "type": "function"
    },
    {
      "inputs": [
        {
          "internalType": "uint256",
          "name": "newPrice",
          "type": "uint256"
        }
      ],
      "name": "setListingPrice",
      "outputs": [],
      "stateMutability": "nonpayable",
      "type": "function"
    },
    {
      "inputs": [
        {
          "internalType": "uint256",
          "name": "tokenId",
          "type": "uint256"
        }
      ],
      "name": "getNftItem",
      "outputs": [
        {
          "components": [
            {
              "internalType": "uint256",
              "name": "tokenId",
              "type": "uint256"
            },
            {
              "internalType": "uint256",
              "name": "price",
              "type": "uint256"
            },
            {
              "internalType": "address",
              "name": "creator",
              "type": "address"
            },
            {
              "internalType": "bool",
              "name": "isListed",
              "type": "bool"
            }
          ],
          "internalType": "struct NftMarket.NftItem",
          "name": "",
          "type": "tuple"
        }
      ],
      "stateMutability": "view",
      "type": "function",
      "constant": true
    },
    {
      "inputs": [],
      "name": "listedItemsCount",
      "outputs": [
        {
          "internalType": "uint256",
          "name": "",
          "type": "uint256"
        }
      ],
      "stateMutability": "view",
      "type": "function",
      "constant": true
    },
    {
      "inputs": [
        {
          "internalType": "string",
          "name": "tokenURI",
          "type": "string"
        }
      ],
      "name": "tokenURIExists",
      "outputs": [
        {
          "internalType": "bool",
          "name": "",
          "type": "bool"
        }
      ],
      "stateMutability": "view",
      "type": "function",
      "constant": true
    },
    {
      "inputs": [],
      "name": "totalSupply",
      "outputs": [
        {
          "internalType": "uint256",
          "name": "",
          "type": "uint256"
        }
      ],
      "stateMutability": "view",
      "type": "function",
      "constant": true
    },
    {
      "inputs": [
        {
          "internalType": "uint256",
          "name": "index",
          "type": "uint256"
        }
      ],
      "name": "tokenByIndex",
      "outputs": [
        {
          "internalType": "uint256",
          "name": "",
          "type": "uint256"
        }
      ],
      "stateMutability": "view",
      "type": "function",
      "constant": true
    },
    {
      "inputs": [
        {
          "internalType": "address",
          "name": "owner",
          "type": "address"
        },
        {
          "internalType": "uint256",
          "name": "index",
          "type": "uint256"
        }
      ],
      "name": "tokenOfOwnerByIndex",
      "outputs": [
        {
          "internalType": "uint256",
          "name": "",
          "type": "uint256"
        }
      ],
      "stateMutability": "view",
      "type": "function",
      "constant": true
    },
    {
      "inputs": [],
      "name": "getAllNftsOnSale",
      "outputs": [
        {
          "components": [
            {
              "internalType": "uint256",
              "name": "tokenId",
              "type": "uint256"
            },
            {
              "internalType": "uint256",
              "name": "price",
              "type": "uint256"
            },
            {
              "internalType": "address",
              "name": "creator",
              "type": "address"
            },
            {
              "internalType": "bool",
              "name": "isListed",
              "type": "bool"
            }
          ],
          "internalType": "struct NftMarket.NftItem[]",
          "name": "",
          "type": "tuple[]"
        }
      ],
      "stateMutability": "view",
      "type": "function",
      "constant": true
    },
    {
      "inputs": [],
      "name": "getOwnedNfts",
      "outputs": [
        {
          "components": [
            {
              "internalType": "uint256",
              "name": "tokenId",
              "type": "uint256"
            },
            {
              "internalType": "uint256",
              "name": "price",
              "type": "uint256"
            },
            {
              "internalType": "address",
              "name": "creator",
              "type": "address"
            },
            {
              "internalType": "bool",
              "name": "isListed",
              "type": "bool"
            }
          ],
          "internalType": "struct NftMarket.NftItem[]",
          "name": "",
          "type": "tuple[]"
        }
      ],
      "stateMutability": "view",
      "type": "function",
      "constant": true
    },
    {
      "inputs": [
        {
          "internalType": "string",
          "name": "tokenURI",
          "type": "string"
        },
        {
          "internalType": "uint256",
          "name": "price",
          "type": "uint256"
        }
      ],
      "name": "mintToken",
      "outputs": [
        {
          "internalType": "uint256",
          "name": "",
          "type": "uint256"
        }
      ],
      "stateMutability": "payable",
      "type": "function",
      "payable": true
    },
    {
      "inputs": [
        {
          "internalType": "uint256",
          "name": "tokenId",
          "type": "uint256"
        }
      ],
      "name": "buyNft",
      "outputs": [],
      "stateMutability": "payable",
      "type": "function",
      "payable": true
    },
    {
      "inputs": [
        {
          "internalType": "uint256",
          "name": "tokenId",
          "type": "uint256"
        },
        {
          "internalType": "uint256",
          "name": "newPrice",
          "type": "uint256"
        }
      ],
      "name": "placeNftOnSale",
      "outputs": [],
      "stateMutability": "payable",
      "type": "function",
      "payable": true
    }
  ],
  "bytecode": "0x60806040526658d15e176280006008553480156200001c57600080fd5b506040518060400160405280600c81526020017f4372656174757265734e465400000000000000000000000000000000000000008152506040518060400160405280600481526020017f434e46540000000000000000000000000000000000000000000000000000000081525081600090816200009a91906200041d565b508060019081620000ac91906200041d565b505050620000cf620000c3620000d560201b60201c565b620000dd60201b60201c565b62000504565b600033905090565b6000600760009054906101000a900473ffffffffffffffffffffffffffffffffffffffff16905081600760006101000a81548173ffffffffffffffffffffffffffffffffffffffff021916908373ffffffffffffffffffffffffffffffffffffffff1602179055508173ffffffffffffffffffffffffffffffffffffffff168173ffffffffffffffffffffffffffffffffffffffff167f8be0079c531659141344cd1fd0a4f28419497f9722a3daafe3b4186f6b6457e060405160405180910390a35050565b600081519050919050565b7f4e487b7100000000000000000000000000000000000000000000000000000000600052604160045260246000fd5b7f4e487b7100000000000000000000000000000000000000000000000000000000600052602260045260246000fd5b600060028204905060018216806200022557607f821691505b6020821081036200023b576200023a620001dd565b5b50919050565b60008190508160005260206000209050919050565b60006020601f8301049050919050565b600082821b905092915050565b600060088302620002a57fffffffffffffffffffffffffffffffffffffffffffffffffffffffffffffffff8262000266565b620002b1868362000266565b95508019841693508086168417925050509392505050565b6000819050919050565b6000819050919050565b6000620002fe620002f8620002f284620002c9565b620002d3565b620002c9565b9050919050565b6000819050919050565b6200031a83620002dd565b62000332620003298262000305565b84845462000273565b825550505050565b600090565b620003496200033a565b620003568184846200030f565b505050565b5b818110156200037e57620003726000826200033f565b6001810190506200035c565b5050565b601f821115620003cd57620003978162000241565b620003a28462000256565b81016020851015620003b2578190505b620003ca620003c18562000256565b8301826200035b565b50505b505050565b600082821c905092915050565b6000620003f260001984600802620003d2565b1980831691505092915050565b60006200040d8383620003df565b9150826002028217905092915050565b6200042882620001a3565b67ffffffffffffffff811115620004445762000443620001ae565b5b6200045082546200020c565b6200045d82828562000382565b600060209050601f83116001811462000495576000841562000480578287015190505b6200048c8582620003ff565b865550620004fc565b601f198416620004a58662000241565b60005b82811015620004cf57848901518255600182019150602085019450602081019050620004a8565b86831015620004ef5784890151620004eb601f891682620003df565b8355505b6001600288020188555050505b505050505050565b61493480620005146000396000f3fe6080604052600436106101c25760003560e01c80636f1a0af5116100f7578063a22cb46511610095578063c87b56dd11610064578063c87b56dd14610651578063ccb4918d1461068e578063e985e9c5146106b9578063f2fde38b146106f6576101c2565b8063a22cb465146105a4578063b88d4fde146105cd578063c046372c146105f6578063c78f19f914610626576101c2565b8063715018a6116100d1578063715018a61461050e5780637c726b69146105255780638da5cb5b1461054e57806395d89b4114610579576101c2565b80636f1a0af51461046957806370a08231146104a657806370cbcb43146104e3576101c2565b8063243adbdd1161016457806342842e0e1161013e57806342842e0e1461038957806343d32ae7146103b25780634f6ccce7146103ef5780636352211e1461042c576101c2565b8063243adbdd146103055780632f745c591461032157806336b536be1461035e576101c2565b8063095ea7b3116101a0578063095ea7b31461026c57806318160ddd1461029557806321f422e5146102c057806323b872dd146102dc576101c2565b806301ffc9a7146101c757806306fdde0314610204578063081812fc1461022f575b600080fd5b3480156101d357600080fd5b506101ee60048036038101906101e99190612f96565b61071f565b6040516101fb9190612fde565b60405180910390f35b34801561021057600080fd5b50610219610780565b6040516102269190613089565b60405180910390f35b34801561023b57600080fd5b50610256600480360381019061025191906130e1565b610812565b604051610263919061314f565b60405180910390f35b34801561027857600080fd5b50610293600480360381019061028e9190613196565b610858565b005b3480156102a157600080fd5b506102aa61096f565b6040516102b791906131e5565b60405180910390f35b6102da60048036038101906102d59190613200565b61097c565b005b3480156102e857600080fd5b5061030360048036038101906102fe9190613240565b610af8565b005b61031f600480360381019061031a91906130e1565b610b58565b005b34801561032d57600080fd5b5061034860048036038101906103439190613196565b610cc0565b60405161035591906131e5565b60405180910390f35b34801561036a57600080fd5b50610373610d65565b60405161038091906133c4565b60405180910390f35b34801561039557600080fd5b506103b060048036038101906103ab9190613240565b610ef9565b005b3480156103be57600080fd5b506103d960048036038101906103d4919061351b565b610f19565b6040516103e69190612fde565b60405180910390f35b3480156103fb57600080fd5b50610416600480360381019061041191906130e1565b610f55565b60405161042391906131e5565b60405180910390f35b34801561043857600080fd5b50610453600480360381019061044e91906130e1565b610fc6565b604051610460919061314f565b60405180910390f35b34801561047557600080fd5b50610490600480360381019061048b91906130e1565b61104c565b60405161049d91906135b9565b60405180910390f35b3480156104b257600080fd5b506104cd60048036038101906104c891906135d4565b6110fe565b6040516104da91906131e5565b60405180910390f35b3480156104ef57600080fd5b506104f86111b5565b60405161050591906133c4565b60405180910390f35b34801561051a57600080fd5b50610523611313565b005b34801561053157600080fd5b5061054c600480360381019061054791906130e1565b611327565b005b34801561055a57600080fd5b5061056361137c565b604051610570919061314f565b60405180910390f35b34801561058557600080fd5b5061058e6113a6565b60405161059b9190613089565b60405180910390f35b3480156105b057600080fd5b506105cb60048036038101906105c6919061362d565b611438565b005b3480156105d957600080fd5b506105f460048036038101906105ef919061370e565b61144e565b005b610610600480360381019061060b9190613791565b6114b0565b60405161061d91906131e5565b60405180910390f35b34801561063257600080fd5b5061063b6115c0565b60405161064891906131e5565b60405180910390f35b34801561065d57600080fd5b50610678600480360381019061067391906130e1565b6115c6565b6040516106859190613089565b60405180910390f35b34801561069a57600080fd5b506106a36116d8565b6040516106b091906131e5565b60405180910390f35b3480156106c557600080fd5b506106e060048036038101906106db91906137ed565b6116e9565b6040516106ed9190612fde565b60405180910390f35b34801561070257600080fd5b5061071d600480360381019061071891906135d4565b61177d565b005b6000634906490660e01b7bffffffffffffffffffffffffffffffffffffffffffffffffffffffff1916827bffffffffffffffffffffffffffffffffffffffffffffffffffffffff19161480610779575061077882611800565b5b9050919050565b60606000805461078f9061385c565b80601f01602080910402602001604051908101604052809291908181526020018280546107bb9061385c565b80156108085780601f106107dd57610100808354040283529160200191610808565b820191906000526020600020905b8154815290600101906020018083116107eb57829003601f168201915b5050505050905090565b600061081d826118e2565b6004600083815260200190815260200160002060009054906101000a900473ffffffffffffffffffffffffffffffffffffffff169050919050565b600061086382610fc6565b90508073ffffffffffffffffffffffffffffffffffffffff168373ffffffffffffffffffffffffffffffffffffffff16036108d3576040517f08c379a00000000000000000000000000000000000000000000000000000000081526004016108ca906138ff565b60405180910390fd5b8073ffffffffffffffffffffffffffffffffffffffff166108f261192d565b73ffffffffffffffffffffffffffffffffffffffff16148061092157506109208161091b61192d565b6116e9565b5b610960576040517f08c379a000000000000000000000000000000000000000000000000000000000815260040161095790613991565b60405180910390fd5b61096a8383611935565b505050565b6000600f80549050905090565b3373ffffffffffffffffffffffffffffffffffffffff1661099c83610fc6565b73ffffffffffffffffffffffffffffffffffffffff16146109f2576040517f08c379a00000000000000000000000000000000000000000000000000000000081526004016109e9906139fd565b60405180910390fd5b60001515600c600084815260200190815260200160002060020160149054906101000a900460ff16151514610a5c576040517f08c379a0000000000000000000000000000000000000000000000000000000008152600401610a5390613a69565b60405180910390fd5b6008543414610aa0576040517f08c379a0000000000000000000000000000000000000000000000000000000008152600401610a9790613afb565b60405180910390fd5b6001600c600084815260200190815260200160002060020160146101000a81548160ff02191690831515021790555080600c600084815260200190815260200160002060010181905550610af460096119ee565b5050565b610b09610b0361192d565b82611a04565b610b48576040517f08c379a0000000000000000000000000000000000000000000000000000000008152600401610b3f90613b8d565b60405180910390fd5b610b53838383611a99565b505050565b6000600c60008381526020019081526020016000206001015490506000610b7e83610fc6565b90508073ffffffffffffffffffffffffffffffffffffffff163373ffffffffffffffffffffffffffffffffffffffff1603610bee576040517f08c379a0000000000000000000000000000000000000000000000000000000008152600401610be590613bf9565b60405180910390fd5b813414610c30576040517f08c379a0000000000000000000000000000000000000000000000000000000008152600401610c2790613c65565b60405180910390fd5b6000600c600085815260200190815260200160002060020160146101000a81548160ff021916908315150217905550610c696009611d92565b610c74813385611a99565b8073ffffffffffffffffffffffffffffffffffffffff166108fc349081150290604051600060405180830381858888f19350505050158015610cba573d6000803e3d6000fd5b50505050565b6000610ccb836110fe565b8210610d0c576040517f08c379a0000000000000000000000000000000000000000000000000000000008152600401610d0390613cd1565b60405180910390fd5b600d60008473ffffffffffffffffffffffffffffffffffffffff1673ffffffffffffffffffffffffffffffffffffffff168152602001908152602001600020600083815260200190815260200160002054905092915050565b60606000610d7161096f565b9050600080610d806009611dee565b67ffffffffffffffff811115610d9957610d986133f0565b5b604051908082528060200260200182016040528015610dd257816020015b610dbf612eea565b815260200190600190039081610db75790505b50905060005b83811015610eef576000610deb82610f55565b90506000600c60008381526020019081526020016000209050600115158160020160149054906101000a900460ff16151503610ee0578060405180608001604052908160008201548152602001600182015481526020016002820160009054906101000a900473ffffffffffffffffffffffffffffffffffffffff1673ffffffffffffffffffffffffffffffffffffffff1673ffffffffffffffffffffffffffffffffffffffff1681526020016002820160149054906101000a900460ff161515151581525050848681518110610ec557610ec4613cf1565b5b6020026020010181905250600185610edd9190613d4f565b94505b50508080600101915050610dd8565b5080935050505090565b610f148383836040518060200160405280600081525061144e565b505050565b600060011515600b83604051610f2f9190613dbf565b908152602001604051809103902060009054906101000a900460ff161515149050919050565b6000610f5f61096f565b8210610fa0576040517f08c379a0000000000000000000000000000000000000000000000000000000008152600401610f9790613cd1565b60405180910390fd5b600f8281548110610fb457610fb3613cf1565b5b90600052602060002001549050919050565b600080610fd283611dfc565b9050600073ffffffffffffffffffffffffffffffffffffffff168173ffffffffffffffffffffffffffffffffffffffff1603611043576040517f08c379a000000000000000000000000000000000000000000000000000000000815260040161103a90613e22565b60405180910390fd5b80915050919050565b611054612eea565b600c600083815260200190815260200160002060405180608001604052908160008201548152602001600182015481526020016002820160009054906101000a900473ffffffffffffffffffffffffffffffffffffffff1673ffffffffffffffffffffffffffffffffffffffff1673ffffffffffffffffffffffffffffffffffffffff1681526020016002820160149054906101000a900460ff1615151515815250509050919050565b60008073ffffffffffffffffffffffffffffffffffffffff168273ffffffffffffffffffffffffffffffffffffffff160361116e576040517f08c379a000000000000000000000000000000000000000000000000000000000815260040161116590613eb4565b60405180910390fd5b600360008373ffffffffffffffffffffffffffffffffffffffff1673ffffffffffffffffffffffffffffffffffffffff168152602001908152602001600020549050919050565b606060006111c2336110fe565b905060008167ffffffffffffffff8111156111e0576111df6133f0565b5b60405190808252806020026020018201604052801561121957816020015b611206612eea565b8152602001906001900390816111fe5790505b50905060005b8281101561130a5760006112333383610cc0565b90506000600c600083815260200190815260200160002090508060405180608001604052908160008201548152602001600182015481526020016002820160009054906101000a900473ffffffffffffffffffffffffffffffffffffffff1673ffffffffffffffffffffffffffffffffffffffff1673ffffffffffffffffffffffffffffffffffffffff1681526020016002820160149054906101000a900460ff1615151515815250508484815181106112f0576112ef613cf1565b5b60200260200101819052505050808060010191505061121f565b50809250505090565b61131b611e39565b6113256000611eb7565b565b61132f611e39565b60008111611372576040517f08c379a000000000000000000000000000000000000000000000000000000000815260040161136990613f20565b60405180910390fd5b8060088190555050565b6000600760009054906101000a900473ffffffffffffffffffffffffffffffffffffffff16905090565b6060600180546113b59061385c565b80601f01602080910402602001604051908101604052809291908181526020018280546113e19061385c565b801561142e5780601f106114035761010080835404028352916020019161142e565b820191906000526020600020905b81548152906001019060200180831161141157829003601f168201915b5050505050905090565b61144a61144361192d565b8383611f7d565b5050565b61145f61145961192d565b83611a04565b61149e576040517f08c379a000000000000000000000000000000000000000000000000000000000815260040161149590613b8d565b60405180910390fd5b6114aa848484846120e9565b50505050565b60006114bb83610f19565b156114fb576040517f08c379a00000000000000000000000000000000000000000000000000000000081526004016114f290613f8c565b60405180910390fd5b600854341461153f576040517f08c379a000000000000000000000000000000000000000000000000000000000815260040161153690613afb565b60405180910390fd5b611549600a6119ee565b61155360096119ee565b600061155f600a611dee565b905061156b3382612145565b6115758185612163565b61157f8184612207565b6001600b856040516115919190613dbf565b908152602001604051809103902060006101000a81548160ff0219169083151502179055508091505092915050565b60085481565b60606115d1826118e2565b60006006600084815260200190815260200160002080546115f19061385c565b80601f016020809104026020016040519081016040528092919081815260200182805461161d9061385c565b801561166a5780601f1061163f5761010080835404028352916020019161166a565b820191906000526020600020905b81548152906001019060200180831161164d57829003601f168201915b50505050509050600061167b612357565b905060008151036116905781925050506116d3565b6000825111156116c55780826040516020016116ad929190613fac565b604051602081830303815290604052925050506116d3565b6116ce8461236e565b925050505b919050565b60006116e46009611dee565b905090565b6000600560008473ffffffffffffffffffffffffffffffffffffffff1673ffffffffffffffffffffffffffffffffffffffff16815260200190815260200160002060008373ffffffffffffffffffffffffffffffffffffffff1673ffffffffffffffffffffffffffffffffffffffff16815260200190815260200160002060009054906101000a900460ff16905092915050565b611785611e39565b600073ffffffffffffffffffffffffffffffffffffffff168173ffffffffffffffffffffffffffffffffffffffff16036117f4576040517f08c379a00000000000000000000000000000000000000000000000000000000081526004016117eb90614042565b60405180910390fd5b6117fd81611eb7565b50565b60007f80ac58cd000000000000000000000000000000000000000000000000000000007bffffffffffffffffffffffffffffffffffffffffffffffffffffffff1916827bffffffffffffffffffffffffffffffffffffffffffffffffffffffff191614806118cb57507f5b5e139f000000000000000000000000000000000000000000000000000000007bffffffffffffffffffffffffffffffffffffffffffffffffffffffff1916827bffffffffffffffffffffffffffffffffffffffffffffffffffffffff1916145b806118db57506118da826123d6565b5b9050919050565b6118eb81612440565b61192a576040517f08c379a000000000000000000000000000000000000000000000000000000000815260040161192190613e22565b60405180910390fd5b50565b600033905090565b816004600083815260200190815260200160002060006101000a81548173ffffffffffffffffffffffffffffffffffffffff021916908373ffffffffffffffffffffffffffffffffffffffff160217905550808273ffffffffffffffffffffffffffffffffffffffff166119a883610fc6565b73ffffffffffffffffffffffffffffffffffffffff167f8c5be1e5ebec7d5bd14f71427d1e84f3dd0314c0f7b2291e5b200ac8c7c3b92560405160405180910390a45050565b6001816000016000828254019250508190555050565b600080611a1083610fc6565b90508073ffffffffffffffffffffffffffffffffffffffff168473ffffffffffffffffffffffffffffffffffffffff161480611a525750611a5181856116e9565b5b80611a9057508373ffffffffffffffffffffffffffffffffffffffff16611a7884610812565b73ffffffffffffffffffffffffffffffffffffffff16145b91505092915050565b8273ffffffffffffffffffffffffffffffffffffffff16611ab982610fc6565b73ffffffffffffffffffffffffffffffffffffffff1614611b0f576040517f08c379a0000000000000000000000000000000000000000000000000000000008152600401611b06906140d4565b60405180910390fd5b600073ffffffffffffffffffffffffffffffffffffffff168273ffffffffffffffffffffffffffffffffffffffff1603611b7e576040517f08c379a0000000000000000000000000000000000000000000000000000000008152600401611b7590614166565b60405180910390fd5b611b8b8383836001612481565b8273ffffffffffffffffffffffffffffffffffffffff16611bab82610fc6565b73ffffffffffffffffffffffffffffffffffffffff1614611c01576040517f08c379a0000000000000000000000000000000000000000000000000000000008152600401611bf8906140d4565b60405180910390fd5b6004600082815260200190815260200160002060006101000a81549073ffffffffffffffffffffffffffffffffffffffff02191690556001600360008573ffffffffffffffffffffffffffffffffffffffff1673ffffffffffffffffffffffffffffffffffffffff168152602001908152602001600020600082825403925050819055506001600360008473ffffffffffffffffffffffffffffffffffffffff1673ffffffffffffffffffffffffffffffffffffffff16815260200190815260200160002060008282540192505081905550816002600083815260200190815260200160002060006101000a81548173ffffffffffffffffffffffffffffffffffffffff021916908373ffffffffffffffffffffffffffffffffffffffff160217905550808273ffffffffffffffffffffffffffffffffffffffff168473ffffffffffffffffffffffffffffffffffffffff167fddf252ad1be2c89b69c2b068fc378daa952ba7f163c4a11628f55a4df523b3ef60405160405180910390a4611d8d8383836001612595565b505050565b60008160000154905060008111611dde576040517f08c379a0000000000000000000000000000000000000000000000000000000008152600401611dd5906141d2565b60405180910390fd5b6001810382600001819055505050565b600081600001549050919050565b60006002600083815260200190815260200160002060009054906101000a900473ffffffffffffffffffffffffffffffffffffffff169050919050565b611e4161192d565b73ffffffffffffffffffffffffffffffffffffffff16611e5f61137c565b73ffffffffffffffffffffffffffffffffffffffff1614611eb5576040517f08c379a0000000000000000000000000000000000000000000000000000000008152600401611eac9061423e565b60405180910390fd5b565b6000600760009054906101000a900473ffffffffffffffffffffffffffffffffffffffff16905081600760006101000a81548173ffffffffffffffffffffffffffffffffffffffff021916908373ffffffffffffffffffffffffffffffffffffffff1602179055508173ffffffffffffffffffffffffffffffffffffffff168173ffffffffffffffffffffffffffffffffffffffff167f8be0079c531659141344cd1fd0a4f28419497f9722a3daafe3b4186f6b6457e060405160405180910390a35050565b8173ffffffffffffffffffffffffffffffffffffffff168373ffffffffffffffffffffffffffffffffffffffff1603611feb576040517f08c379a0000000000000000000000000000000000000000000000000000000008152600401611fe2906142aa565b60405180910390fd5b80600560008573ffffffffffffffffffffffffffffffffffffffff1673ffffffffffffffffffffffffffffffffffffffff16815260200190815260200160002060008473ffffffffffffffffffffffffffffffffffffffff1673ffffffffffffffffffffffffffffffffffffffff16815260200190815260200160002060006101000a81548160ff0219169083151502179055508173ffffffffffffffffffffffffffffffffffffffff168373ffffffffffffffffffffffffffffffffffffffff167f17307eab39ab6107e8899845ad3d59bd9653f200f220920489ca2b5937696c31836040516120dc9190612fde565b60405180910390a3505050565b6120f4848484611a99565b6121008484848461259b565b61213f576040517f08c379a00000000000000000000000000000000000000000000000000000000081526004016121369061433c565b60405180910390fd5b50505050565b61215f828260405180602001604052806000815250612722565b5050565b61216c82612440565b6121ab576040517f08c379a00000000000000000000000000000000000000000000000000000000081526004016121a2906143ce565b60405180910390fd5b806006600084815260200190815260200160002090816121cb919061459a565b507ff8e1a15aba9398e019f0b49df1a4fde98ee17ae345cb5f6b5e2c27f5033e8ce7826040516121fb91906131e5565b60405180910390a15050565b6000811161224a576040517f08c379a000000000000000000000000000000000000000000000000000000000815260040161224190613f20565b60405180910390fd5b60405180608001604052808381526020018281526020013373ffffffffffffffffffffffffffffffffffffffff16815260200160011515815250600c6000848152602001908152602001600020600082015181600001556020820151816001015560408201518160020160006101000a81548173ffffffffffffffffffffffffffffffffffffffff021916908373ffffffffffffffffffffffffffffffffffffffff16021790555060608201518160020160146101000a81548160ff0219169083151502179055509050507f470031062672bc0246e132c723a729c4676710ec663a29e86c88678032daddea828233600160405161234b949392919061466c565b60405180910390a15050565b606060405180602001604052806000815250905090565b6060612379826118e2565b6000612383612357565b905060008151116123a357604051806020016040528060008152506123ce565b806123ad8461277d565b6040516020016123be929190613fac565b6040516020818303038152906040525b915050919050565b60007f01ffc9a7000000000000000000000000000000000000000000000000000000007bffffffffffffffffffffffffffffffffffffffffffffffffffffffff1916827bffffffffffffffffffffffffffffffffffffffffffffffffffffffff1916149050919050565b60008073ffffffffffffffffffffffffffffffffffffffff1661246283611dfc565b73ffffffffffffffffffffffffffffffffffffffff1614159050919050565b61248d8484848461284b565b600073ffffffffffffffffffffffffffffffffffffffff168473ffffffffffffffffffffffffffffffffffffffff16036124cf576124ca82612851565b61250e565b8273ffffffffffffffffffffffffffffffffffffffff168473ffffffffffffffffffffffffffffffffffffffff161461250d5761250c848361289a565b5b5b600073ffffffffffffffffffffffffffffffffffffffff168373ffffffffffffffffffffffffffffffffffffffff16036125505761254b82612a07565b61258f565b8373ffffffffffffffffffffffffffffffffffffffff168373ffffffffffffffffffffffffffffffffffffffff161461258e5761258d8383612ad8565b5b5b50505050565b50505050565b60006125bc8473ffffffffffffffffffffffffffffffffffffffff16612b57565b15612715578373ffffffffffffffffffffffffffffffffffffffff1663150b7a026125e561192d565b8786866040518563ffffffff1660e01b81526004016126079493929190614706565b6020604051808303816000875af192505050801561264357506040513d601f19601f820116820180604052508101906126409190614767565b60015b6126c5573d8060008114612673576040519150601f19603f3d011682016040523d82523d6000602084013e612678565b606091505b5060008151036126bd576040517f08c379a00000000000000000000000000000000000000000000000000000000081526004016126b49061433c565b60405180910390fd5b805181602001fd5b63150b7a0260e01b7bffffffffffffffffffffffffffffffffffffffffffffffffffffffff1916817bffffffffffffffffffffffffffffffffffffffffffffffffffffffff19161491505061271a565b600190505b949350505050565b61272c8383612b7a565b612739600084848461259b565b612778576040517f08c379a000000000000000000000000000000000000000000000000000000000815260040161276f9061433c565b60405180910390fd5b505050565b60606000600161278c84612d97565b01905060008167ffffffffffffffff8111156127ab576127aa6133f0565b5b6040519080825280601f01601f1916602001820160405280156127dd5781602001600182028036833780820191505090505b509050600082602001820190505b600115612840578080600190039150507f3031323334353637383961626364656600000000000000000000000000000000600a86061a8153600a858161283457612833614794565b5b049450600085036127eb575b819350505050919050565b50505050565b600f805490506010600083815260200190815260200160002081905550600f81908060018154018082558091505060019003906000526020600020016000909190919091505550565b600060016128a7846110fe565b6128b191906147c3565b90506000600e6000848152602001908152602001600020549050818114612996576000600d60008673ffffffffffffffffffffffffffffffffffffffff1673ffffffffffffffffffffffffffffffffffffffff168152602001908152602001600020600084815260200190815260200160002054905080600d60008773ffffffffffffffffffffffffffffffffffffffff1673ffffffffffffffffffffffffffffffffffffffff16815260200190815260200160002060008481526020019081526020016000208190555081600e600083815260200190815260200160002081905550505b600e600084815260200190815260200160002060009055600d60008573ffffffffffffffffffffffffffffffffffffffff1673ffffffffffffffffffffffffffffffffffffffff16815260200190815260200160002060008381526020019081526020016000206000905550505050565b60006001600f80549050612a1b91906147c3565b90506000601060008481526020019081526020016000205490506000600f8381548110612a4b57612a4a613cf1565b5b9060005260206000200154905080600f8381548110612a6d57612a6c613cf1565b5b90600052602060002001819055508160106000838152602001908152602001600020819055506010600085815260200190815260200160002060009055600f805480612abc57612abb6147f7565b5b6001900381819060005260206000200160009055905550505050565b6000612ae3836110fe565b905081600d60008573ffffffffffffffffffffffffffffffffffffffff1673ffffffffffffffffffffffffffffffffffffffff16815260200190815260200160002060008381526020019081526020016000208190555080600e600084815260200190815260200160002081905550505050565b6000808273ffffffffffffffffffffffffffffffffffffffff163b119050919050565b600073ffffffffffffffffffffffffffffffffffffffff168273ffffffffffffffffffffffffffffffffffffffff1603612be9576040517f08c379a0000000000000000000000000000000000000000000000000000000008152600401612be090614872565b60405180910390fd5b612bf281612440565b15612c32576040517f08c379a0000000000000000000000000000000000000000000000000000000008152600401612c29906148de565b60405180910390fd5b612c40600083836001612481565b612c4981612440565b15612c89576040517f08c379a0000000000000000000000000000000000000000000000000000000008152600401612c80906148de565b60405180910390fd5b6001600360008473ffffffffffffffffffffffffffffffffffffffff1673ffffffffffffffffffffffffffffffffffffffff16815260200190815260200160002060008282540192505081905550816002600083815260200190815260200160002060006101000a81548173ffffffffffffffffffffffffffffffffffffffff021916908373ffffffffffffffffffffffffffffffffffffffff160217905550808273ffffffffffffffffffffffffffffffffffffffff16600073ffffffffffffffffffffffffffffffffffffffff167fddf252ad1be2c89b69c2b068fc378daa952ba7f163c4a11628f55a4df523b3ef60405160405180910390a4612d93600083836001612595565b5050565b600080600090507a184f03e93ff9f4daa797ed6e38ed64bf6a1f0100000000000000008310612df5577a184f03e93ff9f4daa797ed6e38ed64bf6a1f0100000000000000008381612deb57612dea614794565b5b0492506040810190505b6d04ee2d6d415b85acef81000000008310612e32576d04ee2d6d415b85acef81000000008381612e2857612e27614794565b5b0492506020810190505b662386f26fc100008310612e6157662386f26fc100008381612e5757612e56614794565b5b0492506010810190505b6305f5e1008310612e8a576305f5e1008381612e8057612e7f614794565b5b0492506008810190505b6127108310612eaf576127108381612ea557612ea4614794565b5b0492506004810190505b60648310612ed25760648381612ec857612ec7614794565b5b0492506002810190505b600a8310612ee1576001810190505b80915050919050565b60405180608001604052806000815260200160008152602001600073ffffffffffffffffffffffffffffffffffffffff1681526020016000151581525090565b6000604051905090565b600080fd5b600080fd5b60007fffffffff0000000000000000000000000000000000000000000000000000000082169050919050565b612f7381612f3e565b8114612f7e57600080fd5b50565b600081359050612f9081612f6a565b92915050565b600060208284031215612fac57612fab612f34565b5b6000612fba84828501612f81565b91505092915050565b60008115159050919050565b612fd881612fc3565b82525050565b6000602082019050612ff36000830184612fcf565b92915050565b600081519050919050565b600082825260208201905092915050565b60005b83811015613033578082015181840152602081019050613018565b60008484015250505050565b6000601f19601f8301169050919050565b600061305b82612ff9565b6130658185613004565b9350613075818560208601613015565b61307e8161303f565b840191505092915050565b600060208201905081810360008301526130a38184613050565b905092915050565b6000819050919050565b6130be816130ab565b81146130c957600080fd5b50565b6000813590506130db816130b5565b92915050565b6000602082840312156130f7576130f6612f34565b5b6000613105848285016130cc565b91505092915050565b600073ffffffffffffffffffffffffffffffffffffffff82169050919050565b60006131398261310e565b9050919050565b6131498161312e565b82525050565b60006020820190506131646000830184613140565b92915050565b6131738161312e565b811461317e57600080fd5b50565b6000813590506131908161316a565b92915050565b600080604083850312156131ad576131ac612f34565b5b60006131bb85828601613181565b92505060206131cc858286016130cc565b9150509250929050565b6131df816130ab565b82525050565b60006020820190506131fa60008301846131d6565b92915050565b6000806040838503121561321757613216612f34565b5b6000613225858286016130cc565b9250506020613236858286016130cc565b9150509250929050565b60008060006060848603121561325957613258612f34565b5b600061326786828701613181565b935050602061327886828701613181565b9250506040613289868287016130cc565b9150509250925092565b600081519050919050565b600082825260208201905092915050565b6000819050602082019050919050565b6132c8816130ab565b82525050565b6132d78161312e565b82525050565b6132e681612fc3565b82525050565b60808201600082015161330260008501826132bf565b50602082015161331560208501826132bf565b50604082015161332860408501826132ce565b50606082015161333b60608501826132dd565b50505050565b600061334d83836132ec565b60808301905092915050565b6000602082019050919050565b600061337182613293565b61337b818561329e565b9350613386836132af565b8060005b838110156133b757815161339e8882613341565b97506133a983613359565b92505060018101905061338a565b5085935050505092915050565b600060208201905081810360008301526133de8184613366565b905092915050565b600080fd5b600080fd5b7f4e487b7100000000000000000000000000000000000000000000000000000000600052604160045260246000fd5b6134288261303f565b810181811067ffffffffffffffff82111715613447576134466133f0565b5b80604052505050565b600061345a612f2a565b9050613466828261341f565b919050565b600067ffffffffffffffff821115613486576134856133f0565b5b61348f8261303f565b9050602081019050919050565b82818337600083830152505050565b60006134be6134b98461346b565b613450565b9050828152602081018484840111156134da576134d96133eb565b5b6134e584828561349c565b509392505050565b600082601f830112613502576135016133e6565b5b81356135128482602086016134ab565b91505092915050565b60006020828403121561353157613530612f34565b5b600082013567ffffffffffffffff81111561354f5761354e612f39565b5b61355b848285016134ed565b91505092915050565b60808201600082015161357a60008501826132bf565b50602082015161358d60208501826132bf565b5060408201516135a060408501826132ce565b5060608201516135b360608501826132dd565b50505050565b60006080820190506135ce6000830184613564565b92915050565b6000602082840312156135ea576135e9612f34565b5b60006135f884828501613181565b91505092915050565b61360a81612fc3565b811461361557600080fd5b50565b60008135905061362781613601565b92915050565b6000806040838503121561364457613643612f34565b5b600061365285828601613181565b925050602061366385828601613618565b9150509250929050565b600067ffffffffffffffff821115613688576136876133f0565b5b6136918261303f565b9050602081019050919050565b60006136b16136ac8461366d565b613450565b9050828152602081018484840111156136cd576136cc6133eb565b5b6136d884828561349c565b509392505050565b600082601f8301126136f5576136f46133e6565b5b813561370584826020860161369e565b91505092915050565b6000806000806080858703121561372857613727612f34565b5b600061373687828801613181565b945050602061374787828801613181565b9350506040613758878288016130cc565b925050606085013567ffffffffffffffff81111561377957613778612f39565b5b613785878288016136e0565b91505092959194509250565b600080604083850312156137a8576137a7612f34565b5b600083013567ffffffffffffffff8111156137c6576137c5612f39565b5b6137d2858286016134ed565b92505060206137e3858286016130cc565b9150509250929050565b6000806040838503121561380457613803612f34565b5b600061381285828601613181565b925050602061382385828601613181565b9150509250929050565b7f4e487b7100000000000000000000000000000000000000000000000000000000600052602260045260246000fd5b6000600282049050600182168061387457607f821691505b6020821081036138875761388661382d565b5b50919050565b7f4552433732313a20617070726f76616c20746f2063757272656e74206f776e6560008201527f7200000000000000000000000000000000000000000000000000000000000000602082015250565b60006138e9602183613004565b91506138f48261388d565b604082019050919050565b60006020820190508181036000830152613918816138dc565b9050919050565b7f4552433732313a20617070726f76652063616c6c6572206973206e6f7420746f60008201527f6b656e206f776e6572206f7220617070726f76656420666f7220616c6c000000602082015250565b600061397b603d83613004565b91506139868261391f565b604082019050919050565b600060208201905081810360008301526139aa8161396e565b9050919050565b7f596f7520617265206e6f74206f776e6572206f662074686973206e6674000000600082015250565b60006139e7601d83613004565b91506139f2826139b1565b602082019050919050565b60006020820190508181036000830152613a16816139da565b9050919050565b7f4974656d20697320616c7265616479206f6e2073616c65000000000000000000600082015250565b6000613a53601783613004565b9150613a5e82613a1d565b602082019050919050565b60006020820190508181036000830152613a8281613a46565b9050919050565b7f5072696365206d75737420626520657175616c20746f206c697374696e67207060008201527f7269636500000000000000000000000000000000000000000000000000000000602082015250565b6000613ae5602483613004565b9150613af082613a89565b604082019050919050565b60006020820190508181036000830152613b1481613ad8565b9050919050565b7f4552433732313a2063616c6c6572206973206e6f7420746f6b656e206f776e6560008201527f72206f7220617070726f76656400000000000000000000000000000000000000602082015250565b6000613b77602d83613004565b9150613b8282613b1b565b604082019050919050565b60006020820190508181036000830152613ba681613b6a565b9050919050565b7f596f7520616c7265616479206f776e2074686973204e46540000000000000000600082015250565b6000613be3601883613004565b9150613bee82613bad565b602082019050919050565b60006020820190508181036000830152613c1281613bd6565b9050919050565b7f506c65617365207375626d6974207468652061736b696e672070726963650000600082015250565b6000613c4f601e83613004565b9150613c5a82613c19565b602082019050919050565b60006020820190508181036000830152613c7e81613c42565b9050919050565b7f496e646578206f7574206f6620626f756e647300000000000000000000000000600082015250565b6000613cbb601383613004565b9150613cc682613c85565b602082019050919050565b60006020820190508181036000830152613cea81613cae565b9050919050565b7f4e487b7100000000000000000000000000000000000000000000000000000000600052603260045260246000fd5b7f4e487b7100000000000000000000000000000000000000000000000000000000600052601160045260246000fd5b6000613d5a826130ab565b9150613d65836130ab565b9250828201905080821115613d7d57613d7c613d20565b5b92915050565b600081905092915050565b6000613d9982612ff9565b613da38185613d83565b9350613db3818560208601613015565b80840191505092915050565b6000613dcb8284613d8e565b915081905092915050565b7f4552433732313a20696e76616c696420746f6b656e2049440000000000000000600082015250565b6000613e0c601883613004565b9150613e1782613dd6565b602082019050919050565b60006020820190508181036000830152613e3b81613dff565b9050919050565b7f4552433732313a2061646472657373207a65726f206973206e6f74206120766160008201527f6c6964206f776e65720000000000000000000000000000000000000000000000602082015250565b6000613e9e602983613004565b9150613ea982613e42565b604082019050919050565b60006020820190508181036000830152613ecd81613e91565b9050919050565b7f5072696365206d757374206265206174206c6561737420312077656900000000600082015250565b6000613f0a601c83613004565b9150613f1582613ed4565b602082019050919050565b60006020820190508181036000830152613f3981613efd565b9050919050565b7f546f6b656e2055524920616c7265616479206578697374730000000000000000600082015250565b6000613f76601883613004565b9150613f8182613f40565b602082019050919050565b60006020820190508181036000830152613fa581613f69565b9050919050565b6000613fb88285613d8e565b9150613fc48284613d8e565b91508190509392505050565b7f4f776e61626c653a206e6577206f776e657220697320746865207a65726f206160008201527f6464726573730000000000000000000000000000000000000000000000000000602082015250565b600061402c602683613004565b915061403782613fd0565b604082019050919050565b6000602082019050818103600083015261405b8161401f565b9050919050565b7f4552433732313a207472616e736665722066726f6d20696e636f72726563742060008201527f6f776e6572000000000000000000000000000000000000000000000000000000602082015250565b60006140be602583613004565b91506140c982614062565b604082019050919050565b600060208201905081810360008301526140ed816140b1565b9050919050565b7f4552433732313a207472616e7366657220746f20746865207a65726f2061646460008201527f7265737300000000000000000000000000000000000000000000000000000000602082015250565b6000614150602483613004565b915061415b826140f4565b604082019050919050565b6000602082019050818103600083015261417f81614143565b9050919050565b7f436f756e7465723a2064656372656d656e74206f766572666c6f770000000000600082015250565b60006141bc601b83613004565b91506141c782614186565b602082019050919050565b600060208201905081810360008301526141eb816141af565b9050919050565b7f4f776e61626c653a2063616c6c6572206973206e6f7420746865206f776e6572600082015250565b6000614228602083613004565b9150614233826141f2565b602082019050919050565b600060208201905081810360008301526142578161421b565b9050919050565b7f4552433732313a20617070726f766520746f2063616c6c657200000000000000600082015250565b6000614294601983613004565b915061429f8261425e565b602082019050919050565b600060208201905081810360008301526142c381614287565b9050919050565b7f4552433732313a207472616e7366657220746f206e6f6e20455243373231526560008201527f63656976657220696d706c656d656e7465720000000000000000000000000000602082015250565b6000614326603283613004565b9150614331826142ca565b604082019050919050565b6000602082019050818103600083015261435581614319565b9050919050565b7f45524337323155524953746f726167653a2055524920736574206f66206e6f6e60008201527f6578697374656e7420746f6b656e000000000000000000000000000000000000602082015250565b60006143b8602e83613004565b91506143c38261435c565b604082019050919050565b600060208201905081810360008301526143e7816143ab565b9050919050565b60008190508160005260206000209050919050565b60006020601f8301049050919050565b600082821b905092915050565b6000600883026144507fffffffffffffffffffffffffffffffffffffffffffffffffffffffffffffffff82614413565b61445a8683614413565b95508019841693508086168417925050509392505050565b6000819050919050565b600061449761449261448d846130ab565b614472565b6130ab565b9050919050565b6000819050919050565b6144b18361447c565b6144c56144bd8261449e565b848454614420565b825550505050565b600090565b6144da6144cd565b6144e58184846144a8565b505050565b5b81811015614509576144fe6000826144d2565b6001810190506144eb565b5050565b601f82111561454e5761451f816143ee565b61452884614403565b81016020851015614537578190505b61454b61454385614403565b8301826144ea565b50505b505050565b600082821c905092915050565b600061457160001984600802614553565b1980831691505092915050565b600061458a8383614560565b9150826002028217905092915050565b6145a382612ff9565b67ffffffffffffffff8111156145bc576145bb6133f0565b5b6145c6825461385c565b6145d182828561450d565b600060209050601f83116001811461460457600084156145f2578287015190505b6145fc858261457e565b865550614664565b601f198416614612866143ee565b60005b8281101561463a57848901518255600182019150602085019450602081019050614615565b868310156146575784890151614653601f891682614560565b8355505b6001600288020188555050505b505050505050565b600060808201905061468160008301876131d6565b61468e60208301866131d6565b61469b6040830185613140565b6146a86060830184612fcf565b95945050505050565b600081519050919050565b600082825260208201905092915050565b60006146d8826146b1565b6146e281856146bc565b93506146f2818560208601613015565b6146fb8161303f565b840191505092915050565b600060808201905061471b6000830187613140565b6147286020830186613140565b61473560408301856131d6565b818103606083015261474781846146cd565b905095945050505050565b60008151905061476181612f6a565b92915050565b60006020828403121561477d5761477c612f34565b5b600061478b84828501614752565b91505092915050565b7f4e487b7100000000000000000000000000000000000000000000000000000000600052601260045260246000fd5b60006147ce826130ab565b91506147d9836130ab565b92508282039050818111156147f1576147f0613d20565b5b92915050565b7f4e487b7100000000000000000000000000000000000000000000000000000000600052603160045260246000fd5b7f4552433732313a206d696e7420746f20746865207a65726f2061646472657373600082015250565b600061485c602083613004565b915061486782614826565b602082019050919050565b6000602082019050818103600083015261488b8161484f565b9050919050565b7f4552433732313a20746f6b656e20616c7265616479206d696e74656400000000600082015250565b60006148c8601c83613004565b91506148d382614892565b602082019050919050565b600060208201905081810360008301526148f7816148bb565b905091905056fea2646970667358221220a122499df202778fe9df076a7ebbb4e79185d01711976e4f5c975f6ba9af158864736f6c63430008180033",
  "immutableReferences": {},
  "source": "// SPDX-License-Identifier: MIT \r\npragma solidity >=0.4.22<0.9.0;\r\n\r\nimport \"@openzeppelin/contracts/token/ERC721/extensions/ERC721URIStorage.sol\";\r\nimport \"@openzeppelin/contracts/utils/Counters.sol\";\r\nimport \"@openzeppelin/contracts/access/Ownable.sol\"; \r\n\r\ncontract NftMarket is ERC721URIStorage, Ownable {\r\n  using Counters for Counters.Counter;\r\n\r\n  struct NftItem {\r\n    uint tokenId;\r\n    uint price;\r\n    address creator;\r\n    bool isListed;\r\n  }\r\n\r\n  uint public listingPrice = 0.025 ether;\r\n\r\n  Counters.Counter private _listedItems;\r\n  Counters.Counter private _tokenIds;\r\n\r\n  mapping(string => bool) private _usedTokenURIs;\r\n  mapping(uint => NftItem) private _idToNftItem;\r\n\r\n  mapping(address => mapping(uint => uint)) private _ownedTokens;\r\n  mapping(uint => uint) private _idToOwnedIndex;\r\n\r\n  uint256[] private _allNfts;\r\n  mapping(uint => uint) private _idToNftIndex;\r\n\r\n  event NftItemCreated (\r\n    uint tokenId,\r\n    uint price,\r\n    address creator,\r\n    bool isListed\r\n  );\r\n\r\n  constructor() ERC721(\"CreaturesNFT\", \"CNFT\") {}\r\n\r\n  function setListingPrice(uint newPrice) external onlyOwner {\r\n    require(newPrice > 0, \"Price must be at least 1 wei\");\r\n    listingPrice = newPrice;\r\n  }\r\n\r\n  function getNftItem(uint tokenId) public view returns (NftItem memory) {\r\n    return _idToNftItem[tokenId];\r\n  }\r\n\r\n  function listedItemsCount() public view returns (uint) {\r\n    return _listedItems.current();\r\n  }\r\n\r\n  function tokenURIExists(string memory tokenURI) public view returns (bool) {\r\n    return _usedTokenURIs[tokenURI] == true;\r\n  }\r\n\r\n  function totalSupply() public view returns (uint) {\r\n    return _allNfts.length;\r\n  }\r\n\r\n  function tokenByIndex(uint index) public view returns (uint) {\r\n    require(index < totalSupply(), \"Index out of bounds\");\r\n    return _allNfts[index];\r\n  }\r\n\r\n  function tokenOfOwnerByIndex(address owner, uint index) public view returns (uint) {\r\n    require(index < ERC721.balanceOf(owner), \"Index out of bounds\");\r\n    return _ownedTokens[owner][index];\r\n  }\r\n\r\n  function getAllNftsOnSale() public view returns (NftItem[] memory) {\r\n    uint allItemsCounts = totalSupply();\r\n    uint currentIndex = 0;\r\n    NftItem[] memory items = new NftItem[](_listedItems.current());\r\n\r\n    for (uint i = 0; i < allItemsCounts; i++) {\r\n      uint tokenId = tokenByIndex(i);\r\n      NftItem storage item = _idToNftItem[tokenId];\r\n\r\n      if (item.isListed == true) {\r\n        items[currentIndex] = item;\r\n        currentIndex += 1;\r\n      }\r\n    }\r\n\r\n    return items;\r\n  }\r\n\r\n  function getOwnedNfts() public view returns (NftItem[] memory) {\r\n    uint ownedItemsCount = ERC721.balanceOf(msg.sender);\r\n    NftItem[] memory items = new NftItem[](ownedItemsCount);\r\n\r\n    for (uint i = 0; i < ownedItemsCount; i++) {\r\n      uint tokenId = tokenOfOwnerByIndex(msg.sender, i);\r\n      NftItem storage item = _idToNftItem[tokenId];\r\n      items[i] = item;\r\n    }\r\n\r\n    return items;\r\n  }\r\n\r\n  function mintToken(string memory tokenURI, uint price) public payable returns (uint) {\r\n    require(!tokenURIExists(tokenURI), \"Token URI already exists\");\r\n    require(msg.value == listingPrice, \"Price must be equal to listing price\");\r\n\r\n    _tokenIds.increment();\r\n    _listedItems.increment();\r\n\r\n    uint newTokenId = _tokenIds.current();\r\n\r\n    _safeMint(msg.sender, newTokenId);\r\n    _setTokenURI(newTokenId, tokenURI);\r\n    _createNftItem(newTokenId, price);\r\n    _usedTokenURIs[tokenURI] = true;\r\n\r\n    return newTokenId;\r\n  }\r\n\r\n  function buyNft(\r\n    uint tokenId\r\n  ) public payable {\r\n    uint price = _idToNftItem[tokenId].price;\r\n    address owner = ERC721.ownerOf(tokenId);\r\n\r\n    require(msg.sender != owner, \"You already own this NFT\");\r\n    require(msg.value == price, \"Please submit the asking price\");\r\n\r\n    _idToNftItem[tokenId].isListed = false;\r\n    _listedItems.decrement();\r\n\r\n    _transfer(owner, msg.sender, tokenId);\r\n    payable(owner).transfer(msg.value);\r\n  }\r\n\r\n  function placeNftOnSale(uint tokenId, uint newPrice) public payable {\r\n    require(ERC721.ownerOf(tokenId) == msg.sender, \"You are not owner of this nft\");\r\n    require(_idToNftItem[tokenId].isListed == false, \"Item is already on sale\");\r\n    require(msg.value == listingPrice, \"Price must be equal to listing price\");\r\n\r\n    _idToNftItem[tokenId].isListed = true;\r\n    _idToNftItem[tokenId].price = newPrice;\r\n    _listedItems.increment();\r\n  }\r\n\r\n  function _createNftItem(\r\n    uint tokenId,\r\n    uint price\r\n  ) private {\r\n    require(price > 0, \"Price must be at least 1 wei\");\r\n\r\n    _idToNftItem[tokenId] = NftItem(\r\n      tokenId,\r\n      price,\r\n      msg.sender,\r\n      true\r\n    );\r\n\r\n    emit NftItemCreated(tokenId, price, msg.sender, true);\r\n  }\r\n\r\n  function _beforeTokenTransfer(\r\n    address from,\r\n    address to,\r\n    uint tokenId,\r\n    uint batchsize\r\n  ) internal virtual override {\r\n    super._beforeTokenTransfer(from, to, tokenId,batchsize);\r\n\r\n    if (from == address(0)) {\r\n      _addTokenToAllTokensEnumeration(tokenId);\r\n    } else if (from != to) {\r\n      _removeTokenFromOwnerEnumeration(from, tokenId);\r\n    }\r\n\r\n    if (to == address(0)) {\r\n      _removeTokenFromAllTokensEnumeration(tokenId);\r\n    } else if (to != from) {\r\n      _addTokenToOwnerEnumeration(to, tokenId);\r\n    }\r\n  }\r\n\r\n  function _addTokenToAllTokensEnumeration(uint tokenId) private {\r\n    _idToNftIndex[tokenId] = _allNfts.length;\r\n    _allNfts.push(tokenId);\r\n  }\r\n\r\n  function _addTokenToOwnerEnumeration(address to, uint tokenId) private {\r\n    uint length = ERC721.balanceOf(to);\r\n    _ownedTokens[to][length] = tokenId;\r\n    _idToOwnedIndex[tokenId] = length;\r\n  }\r\n\r\n  function _removeTokenFromOwnerEnumeration(address from, uint tokenId) private {\r\n    uint lastTokenIndex = ERC721.balanceOf(from) - 1;\r\n    uint tokenIndex = _idToOwnedIndex[tokenId];\r\n\r\n    if (tokenIndex != lastTokenIndex) {\r\n      uint lastTokenId = _ownedTokens[from][lastTokenIndex];\r\n\r\n      _ownedTokens[from][tokenIndex] = lastTokenId;\r\n      _idToOwnedIndex[lastTokenId] = tokenIndex;\r\n    }\r\n\r\n    delete _idToOwnedIndex[tokenId];\r\n    delete _ownedTokens[from][lastTokenIndex];\r\n  }\r\n\r\n  function _removeTokenFromAllTokensEnumeration(uint tokenId) private {\r\n    uint lastTokenIndex = _allNfts.length - 1;\r\n    uint tokenIndex = _idToNftIndex[tokenId];\r\n    uint lastTokenId = _allNfts[lastTokenIndex];\r\n\r\n    _allNfts[tokenIndex] = lastTokenId;\r\n    _idToNftIndex[lastTokenId] = tokenIndex;\r\n\r\n    delete _idToNftIndex[tokenId];\r\n    _allNfts.pop();\r\n  }\r\n}\r\n\r\n\r\n\r\n/*contract NftMarket is ERC721URIStorage, Ownable{\r\n    using Counters for Counters.Counter;\r\n\r\n    struct NftItem{\r\n    uint tokenId;\r\n    uint price;\r\n    address creator;\r\n    bool isListed;\r\n\r\n    }\r\n    \r\n\r\n   uint public listingPrice =0.025 ether;\r\n\r\n    Counters.Counter private _listedItems;\r\n    Counters.Counter private _tokenIds;\r\n\r\n    //storing all token ids in array\r\n    uint256[] private _allNfts;\r\n    mapping(uint => uint) private _idToNftIndex;\r\n   \r\n   mapping (string => bool) private _usedTokenURIs;\r\n   mapping(uint => NftItem) private _idToNftItem;\r\n   \r\n   mapping(address => mapping (uint => uint)) private _ownedTokens;\r\n   mapping (uint => uint) private _idToOwnedIndex;\r\n   \r\n\r\n   event NftItemCreated(\r\n    uint tokenId,\r\n    uint price,\r\n    address creator,\r\n    bool isListed\r\n   );\r\n\r\n    constructor() ERC721(\"Nfts\", \"NFT\") {}\r\n    \r\n    function setListingPrice(uint newPrice) external onlyOwner {\r\n        require(newPrice > 0, \"Price must be greater than zero\");\r\n        listingPrice = newPrice;\r\n    }\r\n\r\n    \r\n    function getNftItem(uint tokenId) public view returns(NftItem memory){\r\n        return _idToNftItem[tokenId];\r\n    }\r\n\r\n    function listedItemsCount() public view returns (uint){\r\n        return _listedItems.current();\r\n    }\r\n\r\n\r\n    function tokenURIExists(string memory tokenURI) public view returns(bool){\r\n        return _usedTokenURIs[tokenURI] == true;\r\n    }\r\n\r\n    function totalSupply() public view returns(uint){\r\n        return _allNfts.length;\r\n    }\r\n\r\n    function tokenByIndex(uint index) public view returns(uint){\r\n        require(index < totalSupply(),\"Index out of Bounds\");\r\n        return _allNfts[index];\r\n    }\r\n\r\n    function tokenOfOwnerByIndex(address owner, uint index) public view returns (uint) {\r\n    require(index < ERC721.balanceOf(owner), \"Index out of bounds\");\r\n    return _ownedTokens[owner][index];\r\n  }\r\n\r\n    \r\n  function getAllNftsOnSale() public view returns (NftItem[] memory) {\r\n    uint allItemsCounts = totalSupply();\r\n    uint currentIndex = 0;\r\n    NftItem[] memory items = new NftItem[](_listedItems.current());\r\n\r\n    for (uint i = 0; i < allItemsCounts; i++) {\r\n      uint tokenId = tokenByIndex(i);\r\n      NftItem storage item = _idToNftItem[tokenId];\r\n\r\n      if (item.isListed == true) {\r\n        items[currentIndex] = item;\r\n        currentIndex += 1;\r\n      }\r\n    }\r\n\r\n    return items;\r\n  }\r\n\r\n  function getOwnedNfts() public view returns (NftItem[] memory) {\r\n    uint ownedItemsCount = ERC721.balanceOf(msg.sender);\r\n    NftItem[] memory items = new NftItem[](ownedItemsCount);\r\n\r\n    for (uint i = 0; i < ownedItemsCount; i++) {\r\n      uint tokenId = tokenOfOwnerByIndex(msg.sender, i);\r\n      NftItem storage item = _idToNftItem[tokenId];\r\n      items[i] = item;\r\n    }\r\n\r\n    return items;\r\n  }\r\n\r\n    function mintToken(string memory tokenURI,uint price) public payable returns(uint){\r\n        require(!tokenURIExists(tokenURI),\"Token URI alredy exists\");\r\n        require(msg.value==listingPrice,\"price must be equal to listing price\");\r\n        \r\n        \r\n        _tokenIds.increment();\r\n        _listedItems.increment();\r\n\r\n        uint newTokenId = _tokenIds.current();\r\n\r\n        _safeMint(msg.sender, newTokenId);\r\n        _setTokenURI(newTokenId, tokenURI);\r\n        _createNftItem(newTokenId,price);\r\n        _usedTokenURIs[tokenURI]=true;\r\n\r\n        return newTokenId;\r\n    }\r\n\r\n    function buyNft(\r\n        uint tokenId\r\n    ) public payable{\r\n        uint price = _idToNftItem[tokenId].price;\r\n        address owner = ERC721.ownerOf(tokenId);\r\n\r\n        require (msg.sender != owner, \"You alredy own this NFT\");\r\n        require (msg.value == price,\"Please submit the asking Price\");\r\n\r\n        _idToNftItem[tokenId].isListed = false;\r\n        _listedItems.decrement();\r\n\r\n        _transfer(owner, msg.sender,tokenId);\r\n        payable(owner).transfer(msg.value);\r\n    }\r\n\r\n    function placeNftOnSale(uint tokenId, uint newPrice) public payable {\r\n        require(ERC721.ownerOf(tokenId) == msg.sender, \"You are not owner of this nft\");\r\n        require(_idToNftItem[tokenId].isListed == false, \"Item is already on sale\");\r\n        require(msg.value == listingPrice, \"Price must be equal to listing price\");\r\n\r\n        _idToNftItem[tokenId].isListed = true;\r\n        _idToNftItem[tokenId].price = newPrice;\r\n        _listedItems.increment();\r\n  }\r\n\r\n    function _createNftItem(\r\n        uint tokenId,\r\n        uint price)\r\n        private{\r\n            require(price>0, \"Price must be greater than zero\");\r\n            \r\n            _idToNftItem[tokenId]= NftItem(\r\n                tokenId,\r\n                price,\r\n                msg.sender,\r\n                true\r\n            );\r\n            emit NftItemCreated(tokenId,price,msg.sender,true);\r\n    }        \r\n        \r\n    function _beforeTokenTransfer(\r\n        address from,\r\n        address to,\r\n        uint tokenId,\r\n        uint batchSize\r\n    ) internal virtual override {\r\n        super._beforeTokenTransfer(from, to, tokenId,1);\r\n    \r\n    if(from == address(0)){\r\n        _addTokenToAllTokensEnumeration(tokenId);\r\n    } else if (from!= to){\r\n        _removeTokenFromOwnerEnumeration(from,tokenId);\r\n    }\r\n    if(to == address(0)){\r\n        _removeTokenFromAllTokensEnumeration(tokenId);\r\n    } else if(to!=from){\r\n        _addTokenToOwnerEnumeration(to, tokenId);\r\n    }\r\n    }\r\n    function  _addTokenToAllTokensEnumeration(uint tokenId) private{\r\n        _idToNftIndex[tokenId] = _allNfts.length;\r\n        _allNfts.push(tokenId);\r\n    }\r\n\r\n     function _addTokenToOwnerEnumeration(address to, uint tokenId) private {\r\n    uint length = ERC721.balanceOf(to);\r\n    _ownedTokens[to][length] = tokenId;\r\n    _idToOwnedIndex[tokenId] = length;\r\n  }\r\n   \r\n   function _removeTokenFromOwnerEnumeration(address from,uint tokenId) private {\r\n    uint  lastTokenIndex = ERC721.balanceOf(from) - 1;\r\n    uint tokenIndex = _idToOwnedIndex[tokenId];\r\n\r\n    if (tokenIndex != lastTokenIndex){\r\n        uint lastTokenId = _ownedTokens[from][lastTokenIndex];\r\n\r\n        _ownedTokens[from][tokenIndex] =lastTokenId;\r\n        _idToOwnedIndex[lastTokenId]= tokenIndex;\r\n    }\r\n    delete _idToOwnedIndex[tokenId];\r\n    delete _ownedTokens[from][lastTokenIndex];\r\n\r\n\r\n   }\r\n function _removeTokenFromAllTokensEnumeration(uint tokenId) private {\r\n    uint lastTokenIndex = _allNfts.length - 1;\r\n    uint tokenIndex = _idToNftIndex[tokenId];\r\n    uint lastTokenId = _allNfts[lastTokenIndex];\r\n\r\n    _allNfts[tokenIndex] = lastTokenId;\r\n    _idToNftIndex[lastTokenId] = tokenIndex;\r\n\r\n    delete _idToNftIndex[tokenId];\r\n    _allNfts.pop();\r\n  }\r\n   \r\n}*/",
  "sourcePath": "C:\\Users\\LENOVO\\Desktop\\nft_new\\contracts\\NftMarket.sol",
  "compiler": {
    "name": "solc",
    "version": "0.8.24+commit.e11b9ed9.Emscripten.clang"
  },
  "schemaVersion": "3.4.16",
  "updatedAt": "2024-02-21T13:11:10.999Z",
  "networkType": "ethereum",
  "devdoc": {
    "events": {
      "Approval(address,address,uint256)": {
        "details": "Emitted when `owner` enables `approved` to manage the `tokenId` token."
      },
      "ApprovalForAll(address,address,bool)": {
        "details": "Emitted when `owner` enables or disables (`approved`) `operator` to manage all of its assets."
      },
      "BatchMetadataUpdate(uint256,uint256)": {
        "details": "This event emits when the metadata of a range of tokens is changed. So that the third-party platforms such as NFT market could timely update the images and related attributes of the NFTs."
      },
      "MetadataUpdate(uint256)": {
        "details": "This event emits when the metadata of a token is changed. So that the third-party platforms such as NFT market could timely update the images and related attributes of the NFT."
      },
      "Transfer(address,address,uint256)": {
        "details": "Emitted when `tokenId` token is transferred from `from` to `to`."
      }
    },
    "kind": "dev",
    "methods": {
      "approve(address,uint256)": {
        "details": "See {IERC721-approve}."
      },
      "balanceOf(address)": {
        "details": "See {IERC721-balanceOf}."
      },
      "getApproved(uint256)": {
        "details": "See {IERC721-getApproved}."
      },
      "isApprovedForAll(address,address)": {
        "details": "See {IERC721-isApprovedForAll}."
      },
      "name()": {
        "details": "See {IERC721Metadata-name}."
      },
      "owner()": {
        "details": "Returns the address of the current owner."
      },
      "ownerOf(uint256)": {
        "details": "See {IERC721-ownerOf}."
      },
      "renounceOwnership()": {
        "details": "Leaves the contract without owner. It will not be possible to call `onlyOwner` functions. Can only be called by the current owner. NOTE: Renouncing ownership will leave the contract without an owner, thereby disabling any functionality that is only available to the owner."
      },
      "safeTransferFrom(address,address,uint256)": {
        "details": "See {IERC721-safeTransferFrom}."
      },
      "safeTransferFrom(address,address,uint256,bytes)": {
        "details": "See {IERC721-safeTransferFrom}."
      },
      "setApprovalForAll(address,bool)": {
        "details": "See {IERC721-setApprovalForAll}."
      },
      "supportsInterface(bytes4)": {
        "details": "See {IERC165-supportsInterface}"
      },
      "symbol()": {
        "details": "See {IERC721Metadata-symbol}."
      },
      "tokenURI(uint256)": {
        "details": "See {IERC721Metadata-tokenURI}."
      },
      "transferFrom(address,address,uint256)": {
        "details": "See {IERC721-transferFrom}."
      },
      "transferOwnership(address)": {
        "details": "Transfers ownership of the contract to a new account (`newOwner`). Can only be called by the current owner."
      }
    },
    "version": 1
  },
  "userdoc": {
    "kind": "user",
    "methods": {},
    "version": 1
  }
}